{
  "_format": "hh-sol-artifact-1",
  "contractName": "BuyAndBurn",
  "sourceName": "contracts/BuyAndBurn/BuyAndBurn.sol",
  "abi": [
    {
      "inputs": [],
      "stateMutability": "nonpayable",
      "type": "constructor"
    },
    {
      "anonymous": false,
      "inputs": [
        {
          "indexed": true,
          "internalType": "uint256",
          "name": "titanx",
          "type": "uint256"
        },
        {
          "indexed": true,
          "internalType": "uint256",
          "name": "hlx",
          "type": "uint256"
        },
        {
          "indexed": true,
          "internalType": "address",
          "name": "caller",
          "type": "address"
        }
      ],
      "name": "BoughtAndBurned",
      "type": "event"
    },
    {
      "anonymous": false,
      "inputs": [
        {
          "indexed": true,
          "internalType": "uint256",
          "name": "titanx",
          "type": "uint256"
        },
        {
          "indexed": true,
          "internalType": "uint256",
          "name": "hlx",
          "type": "uint256"
        },
        {
          "indexed": true,
          "internalType": "address",
          "name": "caller",
          "type": "address"
        }
      ],
      "name": "CollectedFees",
      "type": "event"
    },
    {
      "inputs": [],
      "name": "addLiquidity",
      "outputs": [],
      "stateMutability": "nonpayable",
      "type": "function"
    },
    {
      "inputs": [],
      "name": "burnLPHelios",
      "outputs": [],
      "stateMutability": "nonpayable",
      "type": "function"
    },
    {
      "inputs": [],
      "name": "buynBurn",
      "outputs": [],
      "stateMutability": "nonpayable",
      "type": "function"
    },
    {
      "inputs": [],
      "name": "collectFees",
      "outputs": [],
      "stateMutability": "nonpayable",
      "type": "function"
    },
    {
      "inputs": [],
      "name": "createInitialLiquidity",
      "outputs": [],
      "stateMutability": "nonpayable",
      "type": "function"
    },
    {
      "inputs": [],
      "name": "createInitialPool",
      "outputs": [],
      "stateMutability": "nonpayable",
      "type": "function"
    },
    {
      "inputs": [],
      "name": "getAddLiquidity",
      "outputs": [
        {
          "internalType": "bool",
          "name": "",
          "type": "bool"
        }
      ],
      "stateMutability": "view",
      "type": "function"
    },
    {
      "inputs": [],
      "name": "getBuyAndBurnCap",
      "outputs": [
        {
          "internalType": "uint256",
          "name": "",
          "type": "uint256"
        }
      ],
      "stateMutability": "view",
      "type": "function"
    },
    {
      "inputs": [],
      "name": "getBuyAndBurnFunds",
      "outputs": [
        {
          "internalType": "uint256",
          "name": "",
          "type": "uint256"
        }
      ],
      "stateMutability": "view",
      "type": "function"
    },
    {
      "inputs": [],
      "name": "getBuynBurnInterval",
      "outputs": [
        {
          "internalType": "uint256",
          "name": "",
          "type": "uint256"
        }
      ],
      "stateMutability": "view",
      "type": "function"
    },
    {
      "inputs": [],
      "name": "getCurrentEthPrice",
      "outputs": [
        {
          "internalType": "uint256",
          "name": "",
          "type": "uint256"
        }
      ],
      "stateMutability": "view",
      "type": "function"
    },
    {
      "inputs": [],
      "name": "getCurrentSqrtPriceX96",
      "outputs": [
        {
          "internalType": "uint160",
          "name": "",
          "type": "uint160"
        }
      ],
      "stateMutability": "view",
      "type": "function"
    },
    {
      "inputs": [],
      "name": "getCurrentTitanPrice",
      "outputs": [
        {
          "internalType": "uint256",
          "name": "",
          "type": "uint256"
        }
      ],
      "stateMutability": "view",
      "type": "function"
    },
    {
      "inputs": [
        {
          "internalType": "address",
          "name": "account",
          "type": "address"
        }
      ],
      "name": "getHlxBalance",
      "outputs": [
        {
          "internalType": "uint256",
          "name": "",
          "type": "uint256"
        }
      ],
      "stateMutability": "view",
      "type": "function"
    },
    {
      "inputs": [],
      "name": "getHlxBalance",
      "outputs": [
        {
          "internalType": "uint256",
          "name": "",
          "type": "uint256"
        }
      ],
      "stateMutability": "view",
      "type": "function"
    },
    {
      "inputs": [],
      "name": "getHlxFeesBuyAndBurnFunds",
      "outputs": [
        {
          "internalType": "uint256",
          "name": "",
          "type": "uint256"
        }
      ],
      "stateMutability": "view",
      "type": "function"
    },
    {
      "inputs": [],
      "name": "getPoolAddress",
      "outputs": [
        {
          "internalType": "address",
          "name": "",
          "type": "address"
        }
      ],
      "stateMutability": "view",
      "type": "function"
    },
    {
      "inputs": [],
      "name": "getSlippage",
      "outputs": [
        {
          "internalType": "uint256",
          "name": "",
          "type": "uint256"
        }
      ],
      "stateMutability": "view",
      "type": "function"
    },
    {
      "inputs": [
        {
          "internalType": "address",
          "name": "poolAddress",
          "type": "address"
        }
      ],
      "name": "getSqrtPriceX96",
      "outputs": [
        {
          "internalType": "uint160",
          "name": "sqrtPriceX96",
          "type": "uint160"
        }
      ],
      "stateMutability": "view",
      "type": "function"
    },
    {
      "inputs": [],
      "name": "getTitanXBalance",
      "outputs": [
        {
          "internalType": "uint256",
          "name": "",
          "type": "uint256"
        }
      ],
      "stateMutability": "view",
      "type": "function"
    },
    {
      "inputs": [
        {
          "internalType": "address",
          "name": "account",
          "type": "address"
        }
      ],
      "name": "getTitanXBalance",
      "outputs": [
        {
          "internalType": "uint256",
          "name": "",
          "type": "uint256"
        }
      ],
      "stateMutability": "view",
      "type": "function"
    },
    {
      "inputs": [],
      "name": "getTitanXFeesBuyAndBurnFunds",
      "outputs": [
        {
          "internalType": "uint256",
          "name": "",
          "type": "uint256"
        }
      ],
      "stateMutability": "view",
      "type": "function"
    },
    {
      "inputs": [],
      "name": "getTitanXPoolAddress",
      "outputs": [
        {
          "internalType": "address",
          "name": "",
          "type": "address"
        }
      ],
      "stateMutability": "pure",
      "type": "function"
    },
    {
      "inputs": [],
      "name": "getTokenInfo",
      "outputs": [
        {
          "internalType": "uint256",
          "name": "tokenId",
          "type": "uint256"
        },
        {
          "internalType": "uint256",
          "name": "liquidity",
          "type": "uint256"
        },
        {
          "internalType": "int24",
          "name": "tickLower",
          "type": "int24"
        },
        {
          "internalType": "int24",
          "name": "tickUpper",
          "type": "int24"
        }
      ],
      "stateMutability": "view",
      "type": "function"
    },
    {
      "inputs": [],
      "name": "getTokenURI",
      "outputs": [
        {
          "internalType": "string",
          "name": "",
          "type": "string"
        }
      ],
      "stateMutability": "view",
      "type": "function"
    },
    {
      "inputs": [],
      "name": "getTotalHelioBuyAndBurn",
      "outputs": [
        {
          "internalType": "uint256",
          "name": "",
          "type": "uint256"
        }
      ],
      "stateMutability": "view",
      "type": "function"
    },
    {
      "inputs": [],
      "name": "getTotalTitanXBuyAndBurn",
      "outputs": [
        {
          "internalType": "uint256",
          "name": "",
          "type": "uint256"
        }
      ],
      "stateMutability": "view",
      "type": "function"
    },
    {
      "inputs": [
        {
          "internalType": "address",
          "name": "account",
          "type": "address"
        }
      ],
      "name": "getWethBalance",
      "outputs": [
        {
          "internalType": "uint256",
          "name": "",
          "type": "uint256"
        }
      ],
      "stateMutability": "view",
      "type": "function"
    },
    {
      "inputs": [],
      "name": "getWethBalance",
      "outputs": [
        {
          "internalType": "uint256",
          "name": "",
          "type": "uint256"
        }
      ],
      "stateMutability": "view",
      "type": "function"
    },
    {
      "inputs": [],
      "name": "getWethBuyAndBurnCap",
      "outputs": [
        {
          "internalType": "uint256",
          "name": "",
          "type": "uint256"
        }
      ],
      "stateMutability": "view",
      "type": "function"
    },
    {
      "inputs": [],
      "name": "getlastBuynBurnCall",
      "outputs": [
        {
          "internalType": "uint256",
          "name": "",
          "type": "uint256"
        }
      ],
      "stateMutability": "view",
      "type": "function"
    },
    {
      "inputs": [],
      "name": "renounceOwnership",
      "outputs": [],
      "stateMutability": "nonpayable",
      "type": "function"
    },
    {
      "inputs": [
        {
          "internalType": "uint256",
          "name": "secs",
          "type": "uint256"
        }
      ],
      "name": "setBuynBurnInterval",
      "outputs": [],
      "stateMutability": "nonpayable",
      "type": "function"
    },
    {
      "inputs": [
        {
          "internalType": "uint256",
          "name": "amount",
          "type": "uint256"
        }
      ],
      "name": "setCapPerSwap",
      "outputs": [],
      "stateMutability": "nonpayable",
      "type": "function"
    },
    {
      "inputs": [
        {
          "internalType": "uint256",
          "name": "secs",
          "type": "uint256"
        }
      ],
      "name": "setETHBuynBurnInterval",
      "outputs": [],
      "stateMutability": "nonpayable",
      "type": "function"
    },
    {
      "inputs": [
        {
          "internalType": "uint256",
          "name": "amount",
          "type": "uint256"
        }
      ],
      "name": "setETHCapPerSwap",
      "outputs": [],
      "stateMutability": "nonpayable",
      "type": "function"
    },
    {
      "inputs": [
        {
          "internalType": "address",
          "name": "hlxAddress",
          "type": "address"
        }
      ],
      "name": "setHlxAddress",
      "outputs": [],
      "stateMutability": "nonpayable",
      "type": "function"
    },
    {
      "inputs": [
        {
          "internalType": "address",
          "name": "poolAddress",
          "type": "address"
        }
      ],
      "name": "setHlxTitanPoolAddress",
      "outputs": [],
      "stateMutability": "nonpayable",
      "type": "function"
    },
    {
      "inputs": [
        {
          "internalType": "uint32",
          "name": "mins",
          "type": "uint32"
        }
      ],
      "name": "setMinutesTwa",
      "outputs": [],
      "stateMutability": "nonpayable",
      "type": "function"
    },
    {
      "inputs": [
        {
          "internalType": "address",
          "name": "ownerAddress",
          "type": "address"
        }
      ],
      "name": "setOwnerAddress",
      "outputs": [],
      "stateMutability": "nonpayable",
      "type": "function"
    },
    {
      "inputs": [
        {
          "internalType": "uint256",
          "name": "amount",
          "type": "uint256"
        }
      ],
      "name": "setSlippage",
      "outputs": [],
      "stateMutability": "nonpayable",
      "type": "function"
    },
    {
      "inputs": [],
      "name": "totalHeliosLiquidSupply",
      "outputs": [
        {
          "internalType": "uint256",
          "name": "",
          "type": "uint256"
        }
      ],
      "stateMutability": "view",
      "type": "function"
    },
    {
      "inputs": [
        {
          "internalType": "int256",
          "name": "amount0Delta",
          "type": "int256"
        },
        {
          "internalType": "int256",
          "name": "amount1Delta",
          "type": "int256"
        },
        {
          "internalType": "bytes",
          "name": "",
          "type": "bytes"
        }
      ],
      "name": "uniswapV3SwapCallback",
      "outputs": [],
      "stateMutability": "nonpayable",
      "type": "function"
    },
    {
      "stateMutability": "payable",
      "type": "receive"
    }
  ],
  "bytecode": "0x60a060405234801561001057600080fd5b50600160005542608052600380546a295be96e64066972000000600a55662386f26fc10000600b556005600e55603c600f908155610e1060105560ff60a01b196001600160a01b0319909216331791909116600160a01b179091556007805463ffffffff19169091179055608051613512610090600039506135126000f3fe6080604052600436106101f05760003560e01c8063098dada5146102745780630caf3edb14610294578063110f18a0146102b457806314bb2158146102d457806332432f8a146102ff578063331a6bf514610314578063335bce0b146103345780633b20250c146103495780633bd32b16146103695780634088e6051461038957806346ceea531461039e5780634b409045146103c0578063665f8efb146103d557806367ceadab146103ea578063715018a6146103ff57806371a0314b146104145780637aed38a8146104295780637fec4bed1461044b5780639125009d1461046057806394747820146104755780639dd58b581461048a578063a76222af1461049f578063abb1dc44146104b4578063ad2eb63d146104d9578063b12bea12146104ee578063bee403b814610503578063c179306c14610523578063c7ee259114610538578063c87965721461054d578063ca8f3bb114610562578063cece50d414610577578063d098d32014610597578063d4a19116146105b7578063d6315990146105d9578063db293e62146105f9578063e7a101c01461060e578063e8078d941461062e578063f029a2b214610643578063f0fa55a914610663578063f586c6d914610683578063fa461e3314610698578063fc9cee3c146106b8578063ff3af7a6146106cd5761026f565b3661026f573360008051602061349d8339815191521461026d5760008051602061349d8339815191526001600160a01b031663d0e30db0346040518263ffffffff1660e01b81526004016000604051808303818588803b15801561025357600080fd5b505af1158015610267573d6000803e3d6000fd5b50505050505b005b600080fd5b34801561028057600080fd5b5061026d61028f366004612ef1565b6106e2565b3480156102a057600080fd5b5061026d6102af366004612ef1565b61071a565b3480156102c057600080fd5b5061026d6102cf366004612cb2565b610749565b3480156102e057600080fd5b506102e96107bb565b6040516102f69190613038565b60405180910390f35b34801561030b57600080fd5b506102e96107c1565b34801561032057600080fd5b5061026d61032f366004612cb2565b610843565b34801561034057600080fd5b5061026d6108b5565b34801561035557600080fd5b506102e9610364366004612cb2565b61091f565b34801561037557600080fd5b506102e9610384366004612cb2565b6109ab565b34801561039557600080fd5b506102e96109dc565b3480156103aa57600080fd5b506103b36109e2565b6040516102f69190612faf565b3480156103cc57600080fd5b5061026d6109fa565b3480156103e157600080fd5b506102e9610a55565b3480156103f657600080fd5b506102e9610ae2565b34801561040b57600080fd5b5061026d610ae8565b34801561042057600080fd5b5061026d610b24565b34801561043557600080fd5b5061043e610cf0565b6040516102f6919061302d565b34801561045757600080fd5b506103b3610d00565b34801561046c57600080fd5b506102e9610d8f565b34801561048157600080fd5b506102e9610dde565b34801561049657600080fd5b506102e9610e27565b3480156104ab57600080fd5b506102e9610e5b565b3480156104c057600080fd5b506104c9610e8f565b6040516102f69493929190613417565b3480156104e557600080fd5b506102e9610eba565b3480156104fa57600080fd5b506102e9610ec5565b34801561050f57600080fd5b5061026d61051e366004612ef1565b610ecb565b34801561052f57600080fd5b5061026d610f29565b34801561054457600080fd5b506102e96110bc565b34801561055957600080fd5b5061026d6110c2565b34801561056e57600080fd5b506102e96111ed565b34801561058357600080fd5b5061026d610592366004612ef1565b6111f3565b3480156105a357600080fd5b506103b36105b2366004612cb2565b611251565b3480156105c357600080fd5b506105cc611338565b6040516102f69190613041565b3480156105e557600080fd5b5061026d6105f4366004612f6e565b6113c1565b34801561060557600080fd5b506102e9611441565b34801561061a57600080fd5b5061026d610629366004612cb2565b611447565b34801561063a57600080fd5b5061026d6114b9565b34801561064f57600080fd5b506102e961065e366004612cb2565b611504565b34801561066f57600080fd5b5061026d61067e366004612ef1565b611538565b34801561068f57600080fd5b506103b3611595565b3480156106a457600080fd5b5061026d6106b3366004612d0d565b6115a4565b3480156106c457600080fd5b506102e961178c565b3480156106d957600080fd5b506102e9611792565b6003546001600160a01b031633146107155760405162461bcd60e51b815260040161070c906131fe565b60405180910390fd5b600a55565b6003546001600160a01b031633146107445760405162461bcd60e51b815260040161070c906131fe565b600b55565b6003546001600160a01b031633146107735760405162461bcd60e51b815260040161070c906131fe565b6001600160a01b0381166107995760405162461bcd60e51b815260040161070c9061309f565b600180546001600160a01b0319166001600160a01b0392909216919091179055565b60085490565b600154604080516318160ddd60e01b815290516000926001600160a01b0316916318160ddd916004808301926020929190829003018186803b15801561080657600080fd5b505afa15801561081a573d6000803e3d6000fd5b505050506040513d601f19601f8201168201806040525081019061083e9190612f09565b905090565b6003546001600160a01b0316331461086d5760405162461bcd60e51b815260040161070c906131fe565b6001600160a01b0381166108935760405162461bcd60e51b815260040161070c9061309f565b600380546001600160a01b0319166001600160a01b0392909216919091179055565b600160009054906101000a90046001600160a01b03166001600160a01b031663bb88603c6040518163ffffffff1660e01b8152600401600060405180830381600087803b15801561090557600080fd5b505af1158015610919573d6000803e3d6000fd5b50505050565b6040516370a0823160e01b815260009060008051602061349d833981519152906370a0823190610953908590600401612faf565b60206040518083038186803b15801561096b57600080fd5b505afa15801561097f573d6000803e3d6000fd5b505050506040513d601f19601f820116820180604052508101906109a39190612f09565b90505b919050565b6001546040516370a0823160e01b81526000916001600160a01b0316906370a0823190610953908590600401612faf565b60065490565b73c45a81bc23a64ea556ab4cdf08a86b61cdceea8b90565b6002546001600160a01b031615610a235760405162461bcd60e51b815260040161070c90613225565b6001546001600160a01b0316610a4b5760405162461bcd60e51b815260040161070c90613074565b610a53611798565b565b6002546000908190610a6f906001600160a01b0316611251565b6001600160a01b03169050808002670de0b6b3a76400006000610a978383600160c01b611899565b6001549091506001600160a01b031660008051602061347d83398151915210610ac05780610ad9565b806a0c097ce7bc90715b34b9f160241b81610ad757fe5b045b94505050505090565b600f5490565b6003546001600160a01b03163314610b125760405162461bcd60e51b815260040161070c906131fe565b600380546001600160a01b0319169055565b6002546001600160a01b0316610b4c5760405162461bcd60e51b815260040161070c906131d8565b6001600254600160a01b900460ff166001811115610b6657fe5b1415610b7157610a53565b6040516370a0823160e01b8152676765c793fa10079d601f1b9060008051602061347d833981519152906370a0823190610baf903090600401612faf565b60206040518083038186803b158015610bc757600080fd5b505afa158015610bdb573d6000803e3d6000fd5b505050506040513d601f19601f82011682018060405250810190610bff9190612f09565b1015610c1d5760405162461bcd60e51b815260040161070c90613114565b6002805460ff60a01b1916600160a01b179055600154610c57906001600160a01b03166000805160206134bd833981519152600019611949565b610c8060008051602061347d8339815191526000805160206134bd833981519152600019611949565b600160009054906101000a90046001600160a01b03166001600160a01b031663e3d3227d6040518163ffffffff1660e01b8152600401600060405180830381600087803b158015610cd057600080fd5b505af1158015610ce4573d6000803e3d6000fd5b50505050610a53611a97565b600354600160a01b900460ff1690565b60025460408051633850c7bd60e01b815290516000926001600160a01b03169183918391633850c7bd9160048083019260e0929190829003018186803b158015610d4957600080fd5b505afa158015610d5d573d6000803e3d6000fd5b505050506040513d601f19601f82011682018060405250810190610d819190612e51565b509497505050505050505090565b600080610daf73c45a81bc23a64ea556ab4cdf08a86b61cdceea8b611251565b6001600160a01b03169050808002670de0b6b3a76400006000610dd78383600160c01b611899565b9050610ac0565b6001546040516370a0823160e01b81526000916001600160a01b0316906370a0823190610e0f903090600401612faf565b60206040518083038186803b15801561080657600080fd5b6040516370a0823160e01b815260009060008051602061349d833981519152906370a0823190610e0f903090600401612faf565b6040516370a0823160e01b815260009060008051602061347d833981519152906370a0823190610e0f903090600401612faf565b6011546012546013546001600160501b0390921691600281810b9163010000009004900b5b90919293565b600061083e30611504565b600b5490565b6003546001600160a01b03163314610ef55760405162461bcd60e51b815260040161070c906131fe565b603c8110158015610f08575061a8c08111155b610f245760405162461bcd60e51b815260040161070c906131b3565b600f55565b610f31611c1a565b333214610f505760405162461bcd60e51b815260040161070c906131fe565b6001600254600160a01b900460ff166001811115610f6a57fe5b14610f875760405162461bcd60e51b815260040161070c9061324d565b600f54600c54420311610fac5760405162461bcd60e51b815260040161070c9061318d565b42600c556000610fbb30611504565b600a549091506000610fcb610e27565b90508183108015610fdc5750600081115b8015610fed5750601054600d544203115b156110385742600d55600b548111156110055750600b545b61102c60008051602061349d83398151915260008051602061347d83398151915283611c79565b61103530611504565b92505b826110555760405162461bcd60e51b815260040161070c906130c7565b81831115611061578192505b600154620f4240610ce48502049384900393906110979060008051602061347d833981519152906001600160a01b031686611c79565b6110b060008051602061347d8339815191523383611ec1565b50505050610a53612008565b600c5490565b6110ca611c1a565b6000806110d561200f565b600154919350915060009081906001600160a01b031660008051602061347d833981519152101561110a575081905082611110565b50829050815b600354600160a01b900460ff161561119a57600061112c610a55565b9050821580159061113c57508115155b15611194576001546001600160a01b031660008051602061347d83398151915210156111725761116d8284836120d0565b611194565b6111948383836a0c097ce7bc90715b34b9f160241b8161118e57fe5b046120d0565b506111a2565b6111a26108b5565b600880548301905560098054820190556040513390839083907fb3ff07f4fe20273bbc264b773aacc6325987f8b0b1aa4c5bdfe5b75fdbd1284c90600090a450505050610a53612008565b60095490565b6003546001600160a01b0316331461121d5760405162461bcd60e51b815260040161070c906131fe565b603c8110158015611230575061a8c08111155b61124c5760405162461bcd60e51b815260040161070c906131b3565b601055565b60075460009063ffffffff16603c028161126a84612213565b90508163ffffffff168163ffffffff161015611284578091505b63ffffffff8216611315576000849050806001600160a01b0316633850c7bd6040518163ffffffff1660e01b815260040160e06040518083038186803b1580156112cd57600080fd5b505afa1580156112e1573d6000803e3d6000fd5b505050506040513d601f19601f820116820180604052508101906113059190612e51565b5094985061133195505050505050565b600061132185846123e2565b50905061132d8161274c565b9350505b5050919050565b60405163c87b56dd60e01b81526060906000805160206134bd8339815191529063c87b56dd9061136d90600190600401613038565b60006040518083038186803b15801561138557600080fd5b505afa158015611399573d6000803e3d6000fd5b505050506040513d6000823e601f3d908101601f1916820160405261083e9190810190612d87565b6003546001600160a01b031633146113eb5760405162461bcd60e51b815260040161070c906131fe565b60058163ffffffff16101580156114095750603c8163ffffffff1611155b6114255760405162461bcd60e51b815260040161070c90613169565b6007805463ffffffff191663ffffffff92909216919091179055565b60055490565b6003546001600160a01b031633146114715760405162461bcd60e51b815260040161070c906131fe565b6001600160a01b0381166114975760405162461bcd60e51b815260040161070c9061309f565b600280546001600160a01b0319166001600160a01b0392909216919091179055565b6003546001600160a01b031633146114e35760405162461bcd60e51b815260040161070c906131fe565b6003805460ff60a01b198116600160a01b9182900460ff1615909102179055565b6040516370a0823160e01b815260009060008051602061347d833981519152906370a0823190610953908590600401612faf565b6003546001600160a01b031633146115625760405162461bcd60e51b815260040161070c906131fe565b600181101580156115745750600f8111155b6115905760405162461bcd60e51b815260040161070c906130f1565b600e55565b6002546001600160a01b031690565b60008413806115b35750600083135b6115cf5760405162461bcd60e51b815260040161070c906132bc565b3373c45a81bc23a64ea556ab4cdf08a86b61cdceea8b14156116b057600061162b731f98431c8ad98523631ae4a59f267346ea31f98460008051602061349d83398151915260008051602061347d833981519152612710612a73565b90506001600160a01b03811673c45a81bc23a64ea556ab4cdf08a86b61cdceea8b146116695760405162461bcd60e51b815260040161070c90613299565b61169160008051602061349d833981519152336000881361168a578661168c565b875b611ec1565b6000851361169f57836116a1565b845b60048054909101905550610919565b6002546001600160a01b03163314156117745760015460009061170490731f98431c8ad98523631ae4a59f267346ea31f9849060008051602061347d833981519152906001600160a01b0316612710612a73565b6002549091506001600160a01b038083169116146117345760405162461bcd60e51b815260040161070c90613299565b61175560008051602061347d833981519152336000881361168a578661168c565b600085136117635783611765565b845b60058054909101905550610919565b60405162461bcd60e51b815260040161070c90613274565b600e5490565b600a5490565b6000806117a3612a92565b505060015491935091506000805160206134bd833981519152906313ead5629084908490612710906001600160a01b031660008051602061347d833981519152106117f85766194c583ada5b53602d1b611804565b66143d136248490f602a1b5b6040518563ffffffff1660e01b81526004016118239493929190612ffd565b602060405180830381600087803b15801561183d57600080fd5b505af1158015611851573d6000803e3d6000fd5b505050506040513d601f19601f820116820180604052508101906118759190612cce565b600280546001600160a01b0319166001600160a01b03929092169190911790555050565b60008080600019858709868602925082811090839003039050806118cf57600084116118c457600080fd5b508290049050611942565b8084116118db57600080fd5b6000848688096000868103871696879004966002600389028118808a02820302808a02820302808a02820302808a02820302808a02820302808a02909103029181900381900460010186841190950394909402919094039290920491909117919091029150505b9392505050565b604080516001600160a01b038481166024830152604480830185905283518084039091018152606490920183526020820180516001600160e01b031663095ea7b360e01b1781529251825160009485949389169392918291908083835b602083106119c55780518252601f1990920191602091820191016119a6565b6001836020036101000a0380198251168184511680821785525050505050509050019150506000604051808303816000865af19150503d8060008114611a27576040519150601f19603f3d011682016040523d82523d6000602084013e611a2c565b606091505b5091509150818015611a5a575080511580611a5a5750808060200190516020811015611a5757600080fd5b50515b611a90576040805162461bcd60e51b8152602060048201526002602482015261534160f01b604482015290519081900360640190fd5b5050505050565b600080600080611aa5612a92565b93509350935093506000604051806101600160405280866001600160a01b03168152602001856001600160a01b0316815260200161271062ffffff168152602001620d899f1960020b8152602001620d89a060020b8152602001848152602001838152602001606485605a0281611b1857fe5b0481526020016064605a8502048152306020820152610258420160409182015251634418b22b60e11b815290915060009081906000805160206134bd83398151915290638831645690611b6f908690600401613369565b608060405180830381600087803b158015611b8957600080fd5b505af1158015611b9d573d6000803e3d6000fd5b505050506040513d601f19601f82011682018060405250810190611bc19190612f21565b5050601180546001600160501b0319166001600160501b0393909316929092179091556001600160801b031660125550506013805462ffffff191662f276601765ffffff0000001916616c4d601d1b1790555050505050565b60026000541415611c72576040805162461bcd60e51b815260206004820152601f60248201527f5265656e7472616e637947756172643a207265656e7472616e742063616c6c00604482015290519081900360640190fd5b6002600055565b600060646001600160a01b03851660008051602061349d83398151915214611ca857611ca3610a55565b611cb0565b611cb0610d8f565b600e5460640384670de0b6b3a7640000020281611cc957fe5b0481611cd157fe5b04905060006001600160a01b03851660008051602061349d83398151915214611d05576002546001600160a01b0316611d1b565b73c45a81bc23a64ea556ab4cdf08a86b61cdceea8b5b90506000806001600160a01b038084169063128acb08903090898116908b16108881611d5b5773fffd8963efd1fc6a506488495d951d5263988d25611d62565b6401000276a45b6040518563ffffffff1660e01b8152600401611d819493929190612fc3565b6040805180830381600087803b158015611d9a57600080fd5b505af1158015611dae573d6000803e3d6000fd5b505050506040513d601f19601f82011682018060405250810190611dd29190612cea565b915091506000866001600160a01b0316886001600160a01b031610611e0a576000831215611e035782600003611e05565b825b611e1e565b6000821215611e1c5781600003611e1e565b815b905084811015611e405760405162461bcd60e51b815260040161070c9061313e565b6001546001600160a01b0388811691161415611eb7576000611e60610dde565b90506000828211611e715781611e73565b825b60068054820190559050611e856108b5565b604051339082908a907f1b6fe3d614107093562b62b9236e265cac820f430060c5eb674a70824a7435db90600090a450505b5050505050505050565b604080516001600160a01b038481166024830152604480830185905283518084039091018152606490920183526020820180516001600160e01b031663a9059cbb60e01b1781529251825160009485949389169392918291908083835b60208310611f3d5780518252601f199092019160209182019101611f1e565b6001836020036101000a0380198251168184511680821785525050505050509050019150506000604051808303816000865af19150503d8060008114611f9f576040519150601f19603f3d011682016040523d82523d6000602084013e611fa4565b606091505b5091509150818015611fd2575080511580611fd25750808060200190516020811015611fcf57600080fd5b50515b611a90576040805162461bcd60e51b815260206004820152600260248201526114d560f21b604482015290519081900360640190fd5b6001600055565b604080516080810182526011546001600160501b031681523060208201526001600160801b038183018190526060820152905163fc6f786560e01b815260009182916000805160206134bd8339815191529063fc6f7865906120759084906004016132e2565b6040805180830381600087803b15801561208e57600080fd5b505af11580156120a2573d6000803e3d6000fd5b505050506040513d601f19601f820116820180604052508101906120c69190612f5c565b9094909350915050565b60006120e58383670de0b6b3a7640000611899565b905060006120fc85670de0b6b3a764000085611899565b9050600082861061210d578261210f565b855b905060008286106121205782612122565b855b6040805160c0810182526011546001600160501b03168152602081018590528082018390526064605a80870282900460608401528402046080820152426102580160a0820152905163219f5d1760e01b8152919250906000906000805160206134bd8339815191529063219f5d179061219f908590600401613325565b606060405180830381600087803b1580156121b957600080fd5b505af11580156121cd573d6000803e3d6000fd5b505050506040513d601f19601f820116820180604052508101906121f19190612e1d565b5050601280546001600160801b03929092169091019055505050505050505050565b6000806000836001600160a01b0316633850c7bd6040518163ffffffff1660e01b815260040160e06040518083038186803b15801561225157600080fd5b505afa158015612265573d6000803e3d6000fd5b505050506040513d60e081101561227b57600080fd5b506040810151606090910151909250905061ffff81166122c7576040805162461bcd60e51b81526020600482015260026024820152614e4960f01b604482015290519081900360640190fd5b600080856001600160a01b031663252c09d78461ffff168660010161ffff16816122ed57fe5b066040518263ffffffff1660e01b8152600401808261ffff16815260200191505060806040518083038186803b15801561232657600080fd5b505afa15801561233a573d6000803e3d6000fd5b505050506040513d608081101561235057600080fd5b5080516060909101519092509050806123d757856001600160a01b031663252c09d760006040518263ffffffff1660e01b81526004018082815260200191505060806040518083038186803b1580156123a857600080fd5b505afa1580156123bc573d6000803e3d6000fd5b505050506040513d60808110156123d257600080fd5b505191505b504203949350505050565b60008063ffffffff8316612422576040805162461bcd60e51b8152602060048201526002602482015261042560f41b604482015290519081900360640190fd5b604080516002808252606082018352600092602083019080368337019050509050838160008151811061245157fe5b602002602001019063ffffffff16908163ffffffff168152505060008160018151811061247a57fe5b63ffffffff90921660209283029190910182015260405163883bdbfd60e01b81526004810182815283516024830152835160009384936001600160a01b038b169363883bdbfd9388939192839260449091019185820191028083838b5b838110156124ef5781810151838201526020016124d7565b505050509050019250505060006040518083038186803b15801561251257600080fd5b505afa158015612526573d6000803e3d6000fd5b505050506040513d6000823e601f3d908101601f19168201604090815281101561254f57600080fd5b8101908080516040519392919084600160201b82111561256e57600080fd5b90830190602082018581111561258357600080fd5b82518660208202830111600160201b8211171561259f57600080fd5b82525081516020918201928201910280838360005b838110156125cc5781810151838201526020016125b4565b5050505090500160405260200180516040519392919084600160201b8211156125f457600080fd5b90830190602082018581111561260957600080fd5b82518660208202830111600160201b8211171561262557600080fd5b82525081516020918201928201910280838360005b8381101561265257818101518382015260200161263a565b505050509050016040525050509150915060008260008151811061267257fe5b60200260200101518360018151811061268757fe5b60200260200101510390506000826000815181106126a157fe5b6020026020010151836001815181106126b657fe5b60200260200101510390508763ffffffff168260060b816126d357fe5b05965060008260060b1280156126fd57508763ffffffff168260060b816126f657fe5b0760060b15155b1561270a57600019909601955b63ffffffff88166001600160a01b0302600160201b600160c01b03602083901b166001600160c01b0382168161273c57fe5b0496505050505050509250929050565b60008060008360020b12612763578260020b61276b565b8260020b6000035b9050620d89e88111156127a9576040805162461bcd60e51b81526020600482015260016024820152601560fa1b604482015290519081900360640190fd5b6000600182166127bd57600160801b6127cf565b6ffffcb933bd6fad37aa2d162d1a5940015b6001600160881b0316905060028216156127f9576ffff97272373d413259a46990580e213a0260801c5b6004821615612818576ffff2e50f5f656932ef12357cf3c7fdcc0260801c5b6008821615612837576fffe5caca7e10e4e61c3624eaa0941cd00260801c5b6010821615612856576fffcb9843d60f6159c9db58835c9266440260801c5b6020821615612875576fff973b41fa98c081472e6896dfb254c00260801c5b6040821615612894576fff2ea16466c96a3843ec78b326b528610260801c5b60808216156128b3576ffe5dee046a99a2a811c461f1969c30530260801c5b6101008216156128d3576ffcbe86c7900a88aedcffc83b479aa3a40260801c5b6102008216156128f3576ff987a7253ac413176f2b074cf7815e540260801c5b610400821615612913576ff3392b0822b70005940c7a398e4b70f30260801c5b610800821615612933576fe7159475a2c29b7443b29c7fa6e889d90260801c5b611000821615612953576fd097f3bdfd2022b8845ad8f792aa58250260801c5b612000821615612973576fa9f746462d870fdf8a65dc1f90e061e50260801c5b614000821615612993576f70d869a156d2a1b890bb3df62baf32f70260801c5b6180008216156129b3576f31be135f97d08fd981231505542fcfa60260801c5b620100008216156129d4576f09aa508b5b7a84e1c677de54f3e99bc90260801c5b620200008216156129f4576e5d6af8dedb81196699c329225ee6040260801c5b62040000821615612a13576d2216e584f5fa1ea926041bedfe980260801c5b62080000821615612a30576b048a170391f7dc42444e8fa20260801c5b60008460020b1315612a4b578060001981612a4757fe5b0490505b600160201b810615612a5e576001612a61565b60005b60ff16602082901c0192505050919050565b6000612a8985612a84868686612b0b565b612b61565b95945050505050565b60015460008051602061347d833981519152906001600160a01b0316676765c793fa10079d601f1b6714adf4b7320334b9601e1b83831015610eb45750506001546001600160a01b03169260008051602061347d83398151915292506714adf4b7320334b9601e1b9150676765c793fa10079d601f1b90565b612b13612c69565b826001600160a01b0316846001600160a01b03161115612b31579192915b50604080516060810182526001600160a01b03948516815292909316602083015262ffffff169181019190915290565b6000612b6d8383612b8a565b9050336001600160a01b03821614612b8457600080fd5b92915050565b600081602001516001600160a01b031682600001516001600160a01b031610612bb257600080fd5b50805160208083015160409384015184516001600160a01b0394851681850152939091168385015262ffffff166060808401919091528351808403820181526080840185528051908301206001600160f81b031960a085015294901b6001600160601b03191660a183015260b58201939093527fe34f199b19b2b4f47f68442619d555527d244f78a3297ea89325f843f87b8b5460d5808301919091528251808303909101815260f5909101909152805191012090565b604080516060810182526000808252602082018190529181019190915290565b80516001600160801b03811681146109a657600080fd5b805161ffff811681146109a657600080fd5b600060208284031215612cc3578081fd5b813561194281613464565b600060208284031215612cdf578081fd5b815161194281613464565b60008060408385031215612cfc578081fd5b505080516020909101519092909150565b60008060008060608587031215612d22578182fd5b843593506020850135925060408501356001600160401b0380821115612d46578384fd5b818701915087601f830112612d59578384fd5b813581811115612d67578485fd5b886020828501011115612d78578485fd5b95989497505060200194505050565b600060208284031215612d98578081fd5b81516001600160401b0380821115612dae578283fd5b818401915084601f830112612dc1578283fd5b815181811115612dcd57fe5b604051601f8201601f191681016020018381118282101715612deb57fe5b604052818152838201602001871015612e02578485fd5b612e13826020830160208701613438565b9695505050505050565b600080600060608486031215612e31578283fd5b612e3a84612c89565b925060208401519150604084015190509250925092565b600080600080600080600060e0888a031215612e6b578283fd5b8751612e7681613464565b8097505060208801518060020b8114612e8d578384fd5b9550612e9b60408901612ca0565b9450612ea960608901612ca0565b9350612eb760808901612ca0565b925060a088015160ff81168114612ecc578283fd5b60c08901519092508015158114612ee1578182fd5b8091505092959891949750929550565b600060208284031215612f02578081fd5b5035919050565b600060208284031215612f1a578081fd5b5051919050565b60008060008060808587031215612f36578081fd5b84519350612f4660208601612c89565b6040860151606090960151949790965092505050565b60008060408385031215612cfc578182fd5b600060208284031215612f7f578081fd5b813563ffffffff81168114611942578182fd5b6001600160a01b03169052565b60020b9052565b62ffffff169052565b6001600160a01b0391909116815260200190565b6001600160a01b03948516815292151560208401526040830191909152909116606082015260a06080820181905260009082015260c00190565b6001600160a01b039485168152928416602084015262ffffff919091166040830152909116606082015260800190565b901515815260200190565b90815260200190565b6000602082528251806020840152613060816040850160208701613438565b601f01601f19169190910160400192915050565b602080825260119082015270496e76616c6964486c784164647265737360781b604082015260600190565b6020808252600e908201526d496e76616c69644164647265737360901b604082015260600190565b60208082526010908201526f4e6f417661696c61626c6546756e647360801b604082015260600190565b602080825260099082015268312d31355f4f6e6c7960b81b604082015260600190565b60208082526010908201526f09ccacac8409adee4ca40a8d2e8c2dcb60831b604082015260600190565b602080825260119082015270151bdbd31a5d1d1b19549958d95a5d9959607a1b604082015260600190565b6020808252600a9082015269356d2d3168206f6e6c7960b01b604082015260600190565b6020808252600c908201526b125b9d195c9d985b15d85a5d60a21b604082015260600190565b6020808252600b908201526a316d2d3132685f4f6e6c7960a81b604082015260600190565b6020808252600c908201526b4e6f506f6f6c45786973747360a01b604082015260600190565b6020808252600d908201526c24b73b30b634b221b0b63632b960991b604082015260600190565b6020808252600e908201526d141bdbdb12185cd0dc99585d195960921b604082015260600190565b6020808252600d908201526c04e656564496e697469616c4c5609c1b604082015260600190565b6020808252600b908201526a155b9adb9bdddb941bdbdb60aa1b604082015260600190565b60208082526009908201526815dc9bdb99d41bdbdb60ba1b604082015260600190565b6020808252600c908201526b0496e76616c696420537761760a41b604082015260600190565b815181526020808301516001600160a01b0316908201526040808301516001600160801b0390811691830191909152606092830151169181019190915260800190565b600060c082019050825182526020830151602083015260408301516040830152606083015160608301526080830151608083015260a083015160a083015292915050565b60006101608201905061337d828451612f92565b602083015161338f6020840182612f92565b5060408301516133a26040840182612fa6565b5060608301516133b56060840182612f9f565b5060808301516133c86080840182612f9f565b5060a083015160a083015260c083015160c083015260e083015160e08301526101008084015181840152506101208084015161340682850182612f92565b505061014092830151919092015290565b9384526020840192909252600290810b60408401520b606082015260800190565b60005b8381101561345357818101518382015260200161343b565b838111156109195750506000910152565b6001600160a01b038116811461347957600080fd5b5056fe000000000000000000000000f19308f923582a6f7c465e5ce7a9dc1bec6665b1000000000000000000000000c02aaa39b223fe8d0a0e5c4f27ead9083c756cc2000000000000000000000000c36442b4a4522e871399cd717abdd847ab11fe88a2646970667358221220758ce6650b1dadeebac687da8b991a0249a4bd8fc1c7d3279341c5c5e8e2267964736f6c63430007060033",
  "linkReferences": {},
  "deployedLinkReferences": {}
}