{
    "_format": "hh-sol-artifact-1",
    "contractName": "Treasury",
    "sourceName": "contracts/Treasury.sol",
    "abi": [
        {
            "inputs": [
                {
                    "internalType": "address",
                    "name": "invesmentAddress",
                    "type": "address"
                }
            ],
            "stateMutability": "nonpayable",
            "type": "constructor"
        },
        {
            "inputs": [],
            "name": "Helios_NotOnwer",
            "type": "error"
        },
        {
            "anonymous": false,
            "inputs": [
                {
                    "indexed": true,
                    "internalType": "address",
                    "name": "caller",
                    "type": "address"
                },
                {
                    "indexed": true,
                    "internalType": "uint256",
                    "name": "amount",
                    "type": "uint256"
                }
            ],
            "name": "ETHDistributed",
            "type": "event"
        },
        {
            "anonymous": false,
            "inputs": [
                {
                    "indexed": true,
                    "internalType": "address",
                    "name": "amount",
                    "type": "address"
                },
                {
                    "indexed": false,
                    "internalType": "bytes",
                    "name": "data",
                    "type": "bytes"
                }
            ],
            "name": "FallBackCalled",
            "type": "event"
        },
        {
            "anonymous": false,
            "inputs": [
                {
                    "indexed": true,
                    "internalType": "uint256",
                    "name": "stakeContractId",
                    "type": "uint256"
                },
                {
                    "indexed": true,
                    "internalType": "address",
                    "name": "stakeContractAddress",
                    "type": "address"
                }
            ],
            "name": "HlxStakeInstanceCreated",
            "type": "event"
        },
        {
            "anonymous": false,
            "inputs": [
                {
                    "indexed": true,
                    "internalType": "uint256",
                    "name": "amount",
                    "type": "uint256"
                },
                {
                    "indexed": true,
                    "internalType": "uint16",
                    "name": "numOfdays",
                    "type": "uint16"
                },
                {
                    "indexed": true,
                    "internalType": "uint256",
                    "name": "stakedTime",
                    "type": "uint256"
                }
            ],
            "name": "StakedTitanFromTreasury",
            "type": "event"
        },
        {
            "anonymous": false,
            "inputs": [
                {
                    "indexed": true,
                    "internalType": "address",
                    "name": "hlxStakeAddress",
                    "type": "address"
                },
                {
                    "indexed": false,
                    "internalType": "uint256",
                    "name": "sId",
                    "type": "uint256"
                },
                {
                    "indexed": false,
                    "internalType": "uint256",
                    "name": "amount",
                    "type": "uint256"
                }
            ],
            "name": "TitanStakeEnded",
            "type": "event"
        },
        {
            "stateMutability": "payable",
            "type": "fallback"
        },
        {
            "inputs": [],
            "name": "activeHlxStakeContract",
            "outputs": [
                {
                    "internalType": "address",
                    "name": "",
                    "type": "address"
                }
            ],
            "stateMutability": "view",
            "type": "function"
        },
        {
            "inputs": [],
            "name": "claimReward",
            "outputs": [
                {
                    "internalType": "uint256",
                    "name": "claimedAmount",
                    "type": "uint256"
                }
            ],
            "stateMutability": "nonpayable",
            "type": "function"
        },
        {
            "inputs": [],
            "name": "deployNewHlxStakeInstance",
            "outputs": [],
            "stateMutability": "nonpayable",
            "type": "function"
        },
        {
            "inputs": [],
            "name": "getCurrentSlipagePercent",
            "outputs": [
                {
                    "internalType": "uint256",
                    "name": "",
                    "type": "uint256"
                }
            ],
            "stateMutability": "view",
            "type": "function"
        },
        {
            "inputs": [],
            "name": "getInvestmentPoolAddress",
            "outputs": [
                {
                    "internalType": "address",
                    "name": "",
                    "type": "address"
                }
            ],
            "stateMutability": "view",
            "type": "function"
        },
        {
            "inputs": [],
            "name": "getLastStakeId",
            "outputs": [
                {
                    "internalType": "uint256",
                    "name": "",
                    "type": "uint256"
                }
            ],
            "stateMutability": "view",
            "type": "function"
        },
        {
            "inputs": [],
            "name": "getLastStakedTime",
            "outputs": [
                {
                    "internalType": "uint256",
                    "name": "",
                    "type": "uint256"
                }
            ],
            "stateMutability": "view",
            "type": "function"
        },
        {
            "inputs": [],
            "name": "getTitanBalance",
            "outputs": [
                {
                    "internalType": "uint256",
                    "name": "",
                    "type": "uint256"
                }
            ],
            "stateMutability": "view",
            "type": "function"
        },
        {
            "inputs": [],
            "name": "getTotalEthClaimed",
            "outputs": [
                {
                    "internalType": "uint256",
                    "name": "",
                    "type": "uint256"
                }
            ],
            "stateMutability": "view",
            "type": "function"
        },
        {
            "inputs": [],
            "name": "getTotalTitanStaked",
            "outputs": [
                {
                    "internalType": "uint256",
                    "name": "",
                    "type": "uint256"
                }
            ],
            "stateMutability": "view",
            "type": "function"
        },
        {
            "inputs": [],
            "name": "getTotalTitanUnstaked",
            "outputs": [
                {
                    "internalType": "uint256",
                    "name": "",
                    "type": "uint256"
                }
            ],
            "stateMutability": "view",
            "type": "function"
        },
        {
            "inputs": [
                {
                    "internalType": "uint256",
                    "name": "",
                    "type": "uint256"
                }
            ],
            "name": "hlxStakeContracts",
            "outputs": [
                {
                    "internalType": "address",
                    "name": "",
                    "type": "address"
                }
            ],
            "stateMutability": "view",
            "type": "function"
        },
        {
            "inputs": [],
            "name": "lastStakedTime",
            "outputs": [
                {
                    "internalType": "uint256",
                    "name": "",
                    "type": "uint256"
                }
            ],
            "stateMutability": "view",
            "type": "function"
        },
        {
            "inputs": [],
            "name": "numHlxStakeContracts",
            "outputs": [
                {
                    "internalType": "uint256",
                    "name": "",
                    "type": "uint256"
                }
            ],
            "stateMutability": "view",
            "type": "function"
        },
        {
            "inputs": [],
            "name": "renounceOwnership",
            "outputs": [],
            "stateMutability": "nonpayable",
            "type": "function"
        },
        {
            "inputs": [],
            "name": "s_minStakeAmount",
            "outputs": [
                {
                    "internalType": "uint256",
                    "name": "",
                    "type": "uint256"
                }
            ],
            "stateMutability": "view",
            "type": "function"
        },
        {
            "inputs": [],
            "name": "s_stakeInterval",
            "outputs": [
                {
                    "internalType": "uint256",
                    "name": "",
                    "type": "uint256"
                }
            ],
            "stateMutability": "view",
            "type": "function"
        },
        {
            "inputs": [
                {
                    "internalType": "address",
                    "name": "buyAndBurnHlxAddress",
                    "type": "address"
                }
            ],
            "name": "setHlxBuyAndBurnAddress",
            "outputs": [],
            "stateMutability": "nonpayable",
            "type": "function"
        },
        {
            "inputs": [
                {
                    "internalType": "address",
                    "name": "hlxAddress",
                    "type": "address"
                }
            ],
            "name": "setHlxContractAddress",
            "outputs": [],
            "stateMutability": "nonpayable",
            "type": "function"
        },
        {
            "inputs": [
                {
                    "internalType": "address",
                    "name": "newAddress",
                    "type": "address"
                }
            ],
            "name": "setInvestmentPoolAddress",
            "outputs": [],
            "stateMutability": "nonpayable",
            "type": "function"
        },
        {
            "inputs": [
                {
                    "internalType": "uint256",
                    "name": "minAmount",
                    "type": "uint256"
                }
            ],
            "name": "setMinStakeAmount",
            "outputs": [],
            "stateMutability": "nonpayable",
            "type": "function"
        },
        {
            "inputs": [
                {
                    "internalType": "uint256",
                    "name": "amount",
                    "type": "uint256"
                }
            ],
            "name": "setSlippage",
            "outputs": [],
            "stateMutability": "nonpayable",
            "type": "function"
        },
        {
            "inputs": [
                {
                    "internalType": "uint256",
                    "name": "interval",
                    "type": "uint256"
                }
            ],
            "name": "setStakeInterval",
            "outputs": [],
            "stateMutability": "nonpayable",
            "type": "function"
        },
        {
            "inputs": [
                {
                    "internalType": "uint256",
                    "name": "sId",
                    "type": "uint256"
                },
                {
                    "internalType": "uint256",
                    "name": "amountUnstaked",
                    "type": "uint256"
                }
            ],
            "name": "stakeEnded",
            "outputs": [],
            "stateMutability": "nonpayable",
            "type": "function"
        },
        {
            "inputs": [],
            "name": "stakeTITANX",
            "outputs": [],
            "stateMutability": "nonpayable",
            "type": "function"
        },
        {
            "inputs": [
                {
                    "internalType": "address",
                    "name": "newOwner",
                    "type": "address"
                }
            ],
            "name": "transferOwnership",
            "outputs": [],
            "stateMutability": "nonpayable",
            "type": "function"
        },
        {
            "stateMutability": "payable",
            "type": "receive"
        }
    ],
    "bytecode": "0x608060405262093a8060075564174876e8006008556000600a553480156200002657600080fd5b5060405162003d8338038062003d8383398101604081905262000049916200032a565b6001600081905580546001600160a01b031916331790556001600160a01b038116620000ae5760405162461bcd60e51b815260206004820152600f60248201526e496e76616c6964206164647265737360881b60448201526064015b60405180910390fd5b600480546001600160a01b0319166001600160a01b0383161790556005600955620000d8620000f1565b620000e74262093a8062000355565b600655506200037c565b60006040518060200162000105906200031c565b601f1982820381018352601f909101166040819052600b543060601b6001600160601b031916602083015260348201819052919250600090605401604051602081830303815290604052805190602001209050600062000173600083866200020e60201b62000c781760201c565b600c80546001600160a01b0383166001600160a01b031991821681179092556000868152600d6020908152604080832080549094168517909355838252600e9052818120805460ff191660011790559051929350909185917f9fcf459a8850fe1217d94ad8c7a9d14bc66456ad97dbfaf20f1c977cc46df7d391a36001600b600082825462000203919062000355565b909155505050505050565b600083471015620002625760405162461bcd60e51b815260206004820152601d60248201527f437265617465323a20696e73756666696369656e742062616c616e63650000006044820152606401620000a5565b8151620002b25760405162461bcd60e51b815260206004820181905260248201527f437265617465323a2062797465636f6465206c656e677468206973207a65726f6044820152606401620000a5565b8282516020840186f590506001600160a01b038116620003155760405162461bcd60e51b815260206004820152601960248201527f437265617465323a204661696c6564206f6e206465706c6f79000000000000006044820152606401620000a5565b9392505050565b6112c28062002ac183390190565b6000602082840312156200033d57600080fd5b81516001600160a01b03811681146200031557600080fd5b600082198211156200037757634e487b7160e01b600052601160045260246000fd5b500190565b612735806200038c6000396000f3fe6080604052600436106101355760003560e01c806305a03113146101825780630f81715b146101aa5780630fd5754b146101c05780630fd75cd0146101e257806312a241ca146101f85780632509facc1461023b578063270cb65a146102515780633e344972146102665780634d5c8ce31461027b5780636056f51814610290578063683f96dd146102a55780636cc6d963146102ba578063715018a6146102da5780637d9a55f5146102ef5780638f360a6b1461030f5780639c3459f014610325578063afd0ad241461033a578063b88a802f1461035a578063cfea50221461036f578063d000998214610384578063e80ce16114610399578063e893c370146103b9578063eb4af045146103d9578063f0fa55a9146103f9578063f2fde38b14610419578063fe730459146104395761013c565b3661013c57005b336001600160a01b03167fb40fd3686cf544d7d3f4329843eb932c8ec96e2037857630b95813bd9320b242600036604051610178929190611257565b60405180910390a2005b34801561018e57600080fd5b50610197610457565b6040519081526020015b60405180910390f35b3480156101b657600080fd5b5061019760085481565b3480156101cc57600080fd5b506101e06101db366004611286565b6104d7565b005b3480156101ee57600080fd5b5061019760065481565b34801561020457600080fd5b5061022e6102133660046112a8565b600d602052600090815260409020546001600160a01b031681565b6040516101a191906112c1565b34801561024757600080fd5b5061019760075481565b34801561025d57600080fd5b50600f54610197565b34801561027257600080fd5b50600a54610197565b34801561028757600080fd5b50601054610197565b34801561029c57600080fd5b50600954610197565b3480156102b157600080fd5b506101e061057f565b3480156102c657600080fd5b50600c5461022e906001600160a01b031681565b3480156102e657600080fd5b506101e061064b565b3480156102fb57600080fd5b506101e061030a3660046112d5565b61065f565b34801561031b57600080fd5b50610197600b5481565b34801561033157600080fd5b50600554610197565b34801561034657600080fd5b506101e06103553660046112a8565b6106af565b34801561036657600080fd5b506101976106fe565b34801561037b57600080fd5b50600654610197565b34801561039057600080fd5b506101e06108fa565b3480156103a557600080fd5b506101e06103b43660046112d5565b610b63565b3480156103c557600080fd5b506101e06103d43660046112d5565b610bb3565b3480156103e557600080fd5b506101e06103f43660046112a8565b610c03565b34801561040557600080fd5b506101e06104143660046112a8565b610c10565b34801561042557600080fd5b506101e06104343660046112d5565b610c67565b34801561044557600080fd5b506004546001600160a01b031661022e565b6040516370a0823160e01b815260009073f19308f923582a6f7c465e5ce7a9dc1bec6665b1906370a08231906104919030906004016112c1565b602060405180830381865afa1580156104ae573d6000803e3d6000fd5b505050506040513d601f19601f820116820180604052508101906104d291906112fe565b905090565b336000908152600e602052604090205460ff166105295760405162461bcd60e51b815260206004820152600b60248201526a1b9bdd08185b1b1bddd95960aa1b60448201526064015b60405180910390fd5b806010600082825461053b919061132d565b9091555050604080518381526020810183905233917fe16279278d4ecaecd6ae5061c1981cd072c7ab3076d918023f812b03b422062c910160405180910390a25050565b600c54604080516317e1117360e31b815290516001600160a01b03909216916103e891839163bf088b98916004808201926020929091908290030181865afa1580156105cf573d6000803e3d6000fd5b505050506040513d601f19601f820116820180604052508101906105f391906112fe565b10156106405760405162461bcd60e51b815260206004820152601c60248201527b4e6f4e656564466f724e6577486c785374616b65496e7374616e636560201b6044820152606401610520565b610648610d7c565b50565b610653610e88565b61065d6000610eb3565b565b610667610e88565b6001600160a01b03811661068d5760405162461bcd60e51b815260040161052090611345565b600380546001600160a01b0319166001600160a01b0392909216919091179055565b6106b7610e88565b600081116106f95760405162461bcd60e51b815260206004820152600f60248201526e125b9d985b1a59125b9d195c9d985b608a1b6044820152606401610520565b600755565b6000610708610ed5565b3332146107485760405162461bcd60e51b815260206004820152600e60248201526d24b73b30b634b21021b0b63632b960911b6044820152606401610520565b600047905073f19308f923582a6f7c465e5ce7a9dc1bec6665b16001600160a01b0316632277d1bd6040518163ffffffff1660e01b8152600401600060405180830381600087803b15801561079c57600080fd5b505af11580156107b0573d6000803e3d6000fd5b50505050600081476107c2919061136d565b905060005b600b5481101561086d576000818152600d60209081526040808320548151634e71d92d60e01b815291516001600160a01b03909116938493634e71d92d9360048082019492939183900301908290875af1158015610829573d6000803e3d6000fd5b505050506040513d601f19601f8201168201806040525081019061084d91906112fe565b610857908661132d565b945050808061086590611384565b9150506107c7565b50826108ac5760405162461bcd60e51b815260206004820152600e60248201526d4e6f457468436c61696d61626c6560901b6044820152606401610520565b82600f60008282546108be919061132d565b909155506108e3905033826108d4866001610f2f565b6108de919061132d565b610f9f565b6108eb611080565b50506108f76001600055565b90565b610902610ed5565b600c54604080516317e1117360e31b815290516001600160a01b03909216916103e891839163bf088b98916004808201926020929091908290030181865afa158015610952573d6000803e3d6000fd5b505050506040513d601f19601f8201168201806040525081019061097691906112fe565b106109bf5760405162461bcd60e51b8152602060048201526019602482015278139bd059191a5d1a5bdb985b14dd185ad95cd05b1b1bddd959603a1b6044820152606401610520565b60006109c9610457565b9050600854670de0b6b3a76400006109e1919061139f565b811015806109fc57506007546006546109fa904261136d565b115b610a3a5760405162461bcd60e51b815260206004820152600f60248201526e10d85b89dd0818994818d85b1b1959608a1b6044820152606401610520565b6000610a47826000610f2f565b9050610a6873f19308f923582a6f7c465e5ce7a9dc1bec6665b1338361114a565b610a72818361136d565b600c54909250610aa19073f19308f923582a6f7c465e5ce7a9dc1bec6665b1906001600160a01b03168461114a565b826001600160a01b0316633a4b66f16040518163ffffffff1660e01b8152600401600060405180830381600087803b158015610adc57600080fd5b505af1158015610af0573d6000803e3d6000fd5b5050426006555050600a8054906000610b0883611384565b91905055508160056000828254610b1f919061132d565b9091555050600654604051610dac9084907feb2df7fad75a74c61796e5caf9adc68a023ab5ce92048a53abeeaa66aea2c57a90600090a450505061065d6001600055565b610b6b610e88565b6001600160a01b038116610b915760405162461bcd60e51b815260040161052090611345565b600280546001600160a01b0319166001600160a01b0392909216919091179055565b610bbb610e88565b6001600160a01b038116610be15760405162461bcd60e51b815260040161052090611345565b600480546001600160a01b0319166001600160a01b0392909216919091179055565b610c0b610e88565b600855565b610c18610e88565b60018110158015610c2a5750600f8111155b610c625760405162461bcd60e51b8152602060048201526009602482015268312d31355f4f6e6c7960b81b6044820152606401610520565b600955565b610c6f610e88565b61064881610eb3565b600083471015610cca5760405162461bcd60e51b815260206004820152601d60248201527f437265617465323a20696e73756666696369656e742062616c616e63650000006044820152606401610520565b8151610d185760405162461bcd60e51b815260206004820181905260248201527f437265617465323a2062797465636f6465206c656e677468206973207a65726f6044820152606401610520565b8282516020840186f590506001600160a01b038116610d755760405162461bcd60e51b8152602060048201526019602482015278437265617465323a204661696c6564206f6e206465706c6f7960381b6044820152606401610520565b9392505050565b600060405180602001610d8e9061124a565b601f1982820381018352601f909101166040819052600b543060601b6001600160601b0319166020830152603482018190529192506000906054016040516020818303038152906040528051906020012090506000610def60008386610c78565b600c80546001600160a01b0383166001600160a01b031991821681179092556000868152600d6020908152604080832080549094168517909355838252600e9052818120805460ff191660011790559051929350909185917f9fcf459a8850fe1217d94ad8c7a9d14bc66456ad97dbfaf20f1c977cc46df7d391a36001600b6000828254610e7d919061132d565b909155505050505050565b6001546001600160a01b0316331461065d57604051635e8a044f60e01b815260040160405180910390fd5b600180546001600160a01b0319166001600160a01b0392909216919091179055565b60026000541415610f285760405162461bcd60e51b815260206004820152601f60248201527f5265656e7472616e637947756172643a207265656e7472616e742063616c6c006044820152606401610520565b6002600055565b60008115610f7c576000620f4240610f496103e88661139f565b610f5391906113be565b905067016345785d8a00008111610f6a5780610f74565b67016345785d8a00005b915050610f99565b620f4240610f8c6103e88561139f565b610f9691906113be565b90505b92915050565b6001600160a01b038216610fe75760405162461bcd60e51b815260206004820152600f60248201526e496e76616c6964206164647265737360881b6044820152606401610520565b6000826001600160a01b03168260405160006040518083038185875af1925050503d8060008114611034576040519150601f19603f3d011682016040523d82523d6000602084013e611039565b606091505b505090508061107b5760405162461bcd60e51b815260206004820152600e60248201526d11985a5b1959081d1bc81cd95b9960921b6044820152606401610520565b505050565b4760006127106110926103e88461139f565b61109c91906113be565b905060006127106110af611b588561139f565b6110b991906113be565b90506000816110c8848661136d565b6110d2919061136d565b6002549091506110eb906001600160a01b031684610f9f565b600354611101906001600160a01b031683610f9f565b600454611117906001600160a01b031682610f9f565b604051849033907f55083a582b32208b745a21c8ce4f8d545be8cce1437f34637f08fc9d943eacb090600090a350505050565b604080516001600160a01b038481166024830152604480830185905283518084039091018152606490920183526020820180516001600160e01b031663a9059cbb60e01b17905291516000928392908716916111a691906113e0565b6000604051808303816000865af19150503d80600081146111e3576040519150601f19603f3d011682016040523d82523d6000602084013e6111e8565b606091505b5091509150818015611212575080511580611212575080806020019051810190611212919061141b565b6112435760405162461bcd60e51b815260206004820152600260248201526114d560f21b6044820152606401610520565b5050505050565b6112c28061143e83390190565b60208152816020820152818360408301376000818301604090810191909152601f909201601f19160101919050565b6000806040838503121561129957600080fd5b50508035926020909101359150565b6000602082840312156112ba57600080fd5b5035919050565b6001600160a01b0391909116815260200190565b6000602082840312156112e757600080fd5b81356001600160a01b0381168114610d7557600080fd5b60006020828403121561131057600080fd5b5051919050565b634e487b7160e01b600052601160045260246000fd5b6000821982111561134057611340611317565b500190565b6020808252600e908201526d496e76616c69644164647265737360901b604082015260600190565b60008282101561137f5761137f611317565b500390565b600060001982141561139857611398611317565b5060010190565b60008160001904831182151516156113b9576113b9611317565b500290565b6000826113db57634e487b7160e01b600052601260045260246000fd5b500490565b6000825160005b8181101561140157602081860181015185830152016113e7565b81811115611410576000828501525b509190910192915050565b60006020828403121561142d57600080fd5b81518015158114610d7557600080fdfe608060405234801561001057600080fd5b5061001a3361001f565b61006f565b600080546001600160a01b038381166001600160a01b0319831681178455604051919092169283917f8be0079c531659141344cd1fd0a4f28419497f9722a3daafe3b4186f6b6457e09190a35050565b6112448061007e6000396000f3fe6080604052600436106100855760003560e01c8063061f4420146100ce578063072553c5146100e55780633a4b66f1146101165780634e71d92d1461012b578063715018a61461014e5780637611921c146101635780638da5cb5b14610178578063af83a81c1461019a578063bf088b98146101ba578063f2fde38b146101d05761008c565b3661008c57005b60405162461bcd60e51b815260206004820152601260248201527111985b1b189858dac81d1c9a59d9d95c995960721b60448201526064015b60405180910390fd5b3480156100da57600080fd5b506100e36101f0565b005b3480156100f157600080fd5b506100fa61028b565b6040805192151583526020830191909152015b60405180910390f35b34801561012257600080fd5b506100e3610393565b34801561013757600080fd5b50610140610492565b60405190815260200161010d565b34801561015a57600080fd5b506100e3610580565b34801561016f57600080fd5b50610140610594565b34801561018457600080fd5b5061018d610611565b60405161010d9190610deb565b3480156101a657600080fd5b506100e36101b5366004610dff565b610620565b3480156101c657600080fd5b5061014060015481565b3480156101dc57600080fd5b506100e36101eb366004610e18565b6108f8565b6000805160206111ef83398151915261028861020a610611565b6040516370a0823160e01b81526001600160a01b038416906370a0823190610236903090600401610deb565b602060405180830381865afa158015610253573d6000803e3d6000fd5b505050506040513d601f19601f820116820180604052508101906102779190610e48565b6001600160a01b038416919061096e565b50565b60405163842e298160e01b815260009081906000805160206111ef833981519152908290829063842e2981906102c5903090600401610deb565b600060405180830381865afa1580156102e2573d6000803e3d6000fd5b505050506040513d6000823e601f3d908101601f1916820160405261030a9190810190610fcc565b905060005b81518110156103865781818151811061032a5761032a6110a2565b6020026020010151604001516080015165ffffffffffff1642111561037457600182828151811061035d5761035d6110a2565b602002602001015160000151945094505050509091565b8061037e816110ce565b91505061030f565b5060009485945092505050565b61039b6109c4565b6040516370a0823160e01b81526000805160206111ef8339815191529060009082906370a08231906103d1903090600401610deb565b602060405180830381865afa1580156103ee573d6000803e3d6000fd5b505050506040513d601f19601f820116820180604052508101906104129190610e48565b604051630945fe5760e11b815260048101829052610dac60248201529091506001600160a01b0383169063128bfcae90604401600060405180830381600087803b15801561045f57600080fd5b505af1158015610473573d6000803e3d6000fd5b50505050600180600082825461048991906110e9565b90915550505050565b600061049c6109c4565b6040516338ce8f2560e21b81526000805160206111ef83398151915290819063e33a3c94906104cf903090600401610deb565b602060405180830381865afa1580156104ec573d6000803e3d6000fd5b505050506040513d601f19601f820116820180604052508101906105109190610e48565b9150811561057c57806001600160a01b0316633dda78816040518163ffffffff1660e01b8152600401600060405180830381600087803b15801561055357600080fd5b505af1158015610567573d6000803e3d6000fd5b5050505061057c610576610611565b83610a23565b5090565b6105886109c4565b6105926000610b39565b565b6040516338ce8f2560e21b81526000906000805160206111ef83398151915290819063e33a3c94906105ca903090600401610deb565b602060405180830381865afa1580156105e7573d6000803e3d6000fd5b505050506040513d601f19601f8201168201806040525081019061060b9190610e48565b91505090565b6000546001600160a01b031690565b6000805160206111ef833981519152811580159061064057506001548211155b6106795760405162461bcd60e51b815260206004820152600a6024820152691a5b9d985b1a5908125160b21b60448201526064016100c5565b60405162572fd560e11b81526000906001600160a01b0383169062ae5faa906106a89030908790600401611101565b60c060405180830381865afa1580156106c5573d6000803e3d6000fd5b505050506040513d601f19601f820116820180604052508101906106e9919061111a565b9050806080015165ffffffffffff1642106108da576040516370a0823160e01b81526000906001600160a01b038416906370a082319061072d903090600401610deb565b602060405180830381865afa15801561074a573d6000803e3d6000fd5b505050506040513d601f19601f8201168201806040525081019061076e9190610e48565b60405163065f146b60e11b8152600481018690529091506001600160a01b03841690630cbe28d690602401600060405180830381600087803b1580156107b357600080fd5b505af11580156107c7573d6000803e3d6000fd5b50505050600081846001600160a01b03166370a08231306040518263ffffffff1660e01b81526004016107fa9190610deb565b602060405180830381865afa158015610817573d6000803e3d6000fd5b505050506040513d601f19601f8201168201806040525081019061083b9190610e48565b6108459190611136565b9050610868610852610611565b6000805160206111ef833981519152908361096e565b610870610611565b604051630fd5754b60e01b815260048101879052602481018390526001600160a01b039190911690630fd5754b90604401600060405180830381600087803b1580156108bb57600080fd5b505af11580156108cf573d6000803e3d6000fd5b505050505050505050565b604051632968c44760e21b815260040160405180910390fd5b505050565b6109006109c4565b6001600160a01b0381166109655760405162461bcd60e51b815260206004820152602660248201527f4f776e61626c653a206e6577206f776e657220697320746865207a65726f206160448201526564647265737360d01b60648201526084016100c5565b61028881610b39565b6108f38363a9059cbb60e01b848460405160240161098d929190611101565b60408051601f198184030181529190526020810180516001600160e01b03166001600160e01b031990931692909217909152610b89565b336109cd610611565b6001600160a01b0316146105925760405162461bcd60e51b815260206004820181905260248201527f4f776e61626c653a2063616c6c6572206973206e6f7420746865206f776e657260448201526064016100c5565b80471015610a735760405162461bcd60e51b815260206004820152601d60248201527f416464726573733a20696e73756666696369656e742062616c616e636500000060448201526064016100c5565b6000826001600160a01b03168260405160006040518083038185875af1925050503d8060008114610ac0576040519150601f19603f3d011682016040523d82523d6000602084013e610ac5565b606091505b50509050806108f35760405162461bcd60e51b815260206004820152603a60248201527f416464726573733a20756e61626c6520746f2073656e642076616c75652c20726044820152791958da5c1a595b9d081b585e481a185d99481c995d995c9d195960321b60648201526084016100c5565b600080546001600160a01b038381166001600160a01b0319831681178455604051919092169283917f8be0079c531659141344cd1fd0a4f28419497f9722a3daafe3b4186f6b6457e09190a35050565b6000610bde826040518060400160405280602081526020017f5361666545524332303a206c6f772d6c6576656c2063616c6c206661696c6564815250856001600160a01b0316610c5e9092919063ffffffff16565b9050805160001480610bff575080806020019051810190610bff919061114d565b6108f35760405162461bcd60e51b815260206004820152602a60248201527f5361666545524332303a204552433230206f7065726174696f6e20646964206e6044820152691bdd081cdd58d8d9595960b21b60648201526084016100c5565b6060610c6d8484600085610c75565b949350505050565b606082471015610cd65760405162461bcd60e51b815260206004820152602660248201527f416464726573733a20696e73756666696369656e742062616c616e636520666f6044820152651c8818d85b1b60d21b60648201526084016100c5565b600080866001600160a01b03168587604051610cf2919061119f565b60006040518083038185875af1925050503d8060008114610d2f576040519150601f19603f3d011682016040523d82523d6000602084013e610d34565b606091505b5091509150610d4587838387610d50565b979650505050505050565b60608315610dbc578251610db5576001600160a01b0385163b610db55760405162461bcd60e51b815260206004820152601d60248201527f416464726573733a2063616c6c20746f206e6f6e2d636f6e747261637400000060448201526064016100c5565b5081610c6d565b610c6d8383815115610dd15781518083602001fd5b8060405162461bcd60e51b81526004016100c591906111bb565b6001600160a01b0391909116815260200190565b600060208284031215610e1157600080fd5b5035919050565b600060208284031215610e2a57600080fd5b81356001600160a01b0381168114610e4157600080fd5b9392505050565b600060208284031215610e5a57600080fd5b5051919050565b634e487b7160e01b600052604160045260246000fd5b60405160c081016001600160401b0381118282101715610e9957610e99610e61565b60405290565b604051606081016001600160401b0381118282101715610e9957610e99610e61565b604051601f8201601f191681016001600160401b0381118282101715610ee957610ee9610e61565b604052919050565b805161ffff81168114610f0357600080fd5b919050565b805165ffffffffffff81168114610f0357600080fd5b805160038110610f0357600080fd5b600060c08284031215610f3f57600080fd5b610f47610e77565b82519091506001600160981b0381168114610f6157600080fd5b815260208201516001600160801b0381168114610f7d57600080fd5b6020820152610f8e60408301610ef1565b6040820152610f9f60608301610f08565b6060820152610fb060808301610f08565b6080820152610fc160a08301610f1e565b60a082015292915050565b60006020808385031215610fdf57600080fd5b82516001600160401b0380821115610ff657600080fd5b818501915085601f83011261100a57600080fd5b81518181111561101c5761101c610e61565b61102a848260051b01610ec1565b818152848101925060089190911b83018401908782111561104a57600080fd5b928401925b81841015610d455761010084890312156110695760008081fd5b611071610e9f565b845181528585015186820152604061108b8a828801610f2d565b90820152835261010093909301929184019161104f565b634e487b7160e01b600052603260045260246000fd5b634e487b7160e01b600052601160045260246000fd5b60006000198214156110e2576110e26110b8565b5060010190565b600082198211156110fc576110fc6110b8565b500190565b6001600160a01b03929092168252602082015260400190565b600060c0828403121561112c57600080fd5b610e418383610f2d565b600082821015611148576111486110b8565b500390565b60006020828403121561115f57600080fd5b81518015158114610e4157600080fd5b60005b8381101561118a578181015183820152602001611172565b83811115611199576000848401525b50505050565b600082516111b181846020870161116f565b9190910192915050565b60208152600082518060208401526111da81604085016020870161116f565b601f01601f1916919091016040019291505056fe000000000000000000000000f19308f923582a6f7c465e5ce7a9dc1bec6665b1a2646970667358221220fb182bdef640a9f3c531eb631299f62823d5075eef3b0c40b307b380360b606264736f6c634300080a0033a2646970667358221220f30260f7cce864e3d9b786c1e598eb2142087b5560076faea689d68d3472334b64736f6c634300080a0033608060405234801561001057600080fd5b5061001a3361001f565b61006f565b600080546001600160a01b038381166001600160a01b0319831681178455604051919092169283917f8be0079c531659141344cd1fd0a4f28419497f9722a3daafe3b4186f6b6457e09190a35050565b6112448061007e6000396000f3fe6080604052600436106100855760003560e01c8063061f4420146100ce578063072553c5146100e55780633a4b66f1146101165780634e71d92d1461012b578063715018a61461014e5780637611921c146101635780638da5cb5b14610178578063af83a81c1461019a578063bf088b98146101ba578063f2fde38b146101d05761008c565b3661008c57005b60405162461bcd60e51b815260206004820152601260248201527111985b1b189858dac81d1c9a59d9d95c995960721b60448201526064015b60405180910390fd5b3480156100da57600080fd5b506100e36101f0565b005b3480156100f157600080fd5b506100fa61028b565b6040805192151583526020830191909152015b60405180910390f35b34801561012257600080fd5b506100e3610393565b34801561013757600080fd5b50610140610492565b60405190815260200161010d565b34801561015a57600080fd5b506100e3610580565b34801561016f57600080fd5b50610140610594565b34801561018457600080fd5b5061018d610611565b60405161010d9190610deb565b3480156101a657600080fd5b506100e36101b5366004610dff565b610620565b3480156101c657600080fd5b5061014060015481565b3480156101dc57600080fd5b506100e36101eb366004610e18565b6108f8565b6000805160206111ef83398151915261028861020a610611565b6040516370a0823160e01b81526001600160a01b038416906370a0823190610236903090600401610deb565b602060405180830381865afa158015610253573d6000803e3d6000fd5b505050506040513d601f19601f820116820180604052508101906102779190610e48565b6001600160a01b038416919061096e565b50565b60405163842e298160e01b815260009081906000805160206111ef833981519152908290829063842e2981906102c5903090600401610deb565b600060405180830381865afa1580156102e2573d6000803e3d6000fd5b505050506040513d6000823e601f3d908101601f1916820160405261030a9190810190610fcc565b905060005b81518110156103865781818151811061032a5761032a6110a2565b6020026020010151604001516080015165ffffffffffff1642111561037457600182828151811061035d5761035d6110a2565b602002602001015160000151945094505050509091565b8061037e816110ce565b91505061030f565b5060009485945092505050565b61039b6109c4565b6040516370a0823160e01b81526000805160206111ef8339815191529060009082906370a08231906103d1903090600401610deb565b602060405180830381865afa1580156103ee573d6000803e3d6000fd5b505050506040513d601f19601f820116820180604052508101906104129190610e48565b604051630945fe5760e11b815260048101829052610dac60248201529091506001600160a01b0383169063128bfcae90604401600060405180830381600087803b15801561045f57600080fd5b505af1158015610473573d6000803e3d6000fd5b50505050600180600082825461048991906110e9565b90915550505050565b600061049c6109c4565b6040516338ce8f2560e21b81526000805160206111ef83398151915290819063e33a3c94906104cf903090600401610deb565b602060405180830381865afa1580156104ec573d6000803e3d6000fd5b505050506040513d601f19601f820116820180604052508101906105109190610e48565b9150811561057c57806001600160a01b0316633dda78816040518163ffffffff1660e01b8152600401600060405180830381600087803b15801561055357600080fd5b505af1158015610567573d6000803e3d6000fd5b5050505061057c610576610611565b83610a23565b5090565b6105886109c4565b6105926000610b39565b565b6040516338ce8f2560e21b81526000906000805160206111ef83398151915290819063e33a3c94906105ca903090600401610deb565b602060405180830381865afa1580156105e7573d6000803e3d6000fd5b505050506040513d601f19601f8201168201806040525081019061060b9190610e48565b91505090565b6000546001600160a01b031690565b6000805160206111ef833981519152811580159061064057506001548211155b6106795760405162461bcd60e51b815260206004820152600a6024820152691a5b9d985b1a5908125160b21b60448201526064016100c5565b60405162572fd560e11b81526000906001600160a01b0383169062ae5faa906106a89030908790600401611101565b60c060405180830381865afa1580156106c5573d6000803e3d6000fd5b505050506040513d601f19601f820116820180604052508101906106e9919061111a565b9050806080015165ffffffffffff1642106108da576040516370a0823160e01b81526000906001600160a01b038416906370a082319061072d903090600401610deb565b602060405180830381865afa15801561074a573d6000803e3d6000fd5b505050506040513d601f19601f8201168201806040525081019061076e9190610e48565b60405163065f146b60e11b8152600481018690529091506001600160a01b03841690630cbe28d690602401600060405180830381600087803b1580156107b357600080fd5b505af11580156107c7573d6000803e3d6000fd5b50505050600081846001600160a01b03166370a08231306040518263ffffffff1660e01b81526004016107fa9190610deb565b602060405180830381865afa158015610817573d6000803e3d6000fd5b505050506040513d601f19601f8201168201806040525081019061083b9190610e48565b6108459190611136565b9050610868610852610611565b6000805160206111ef833981519152908361096e565b610870610611565b604051630fd5754b60e01b815260048101879052602481018390526001600160a01b039190911690630fd5754b90604401600060405180830381600087803b1580156108bb57600080fd5b505af11580156108cf573d6000803e3d6000fd5b505050505050505050565b604051632968c44760e21b815260040160405180910390fd5b505050565b6109006109c4565b6001600160a01b0381166109655760405162461bcd60e51b815260206004820152602660248201527f4f776e61626c653a206e6577206f776e657220697320746865207a65726f206160448201526564647265737360d01b60648201526084016100c5565b61028881610b39565b6108f38363a9059cbb60e01b848460405160240161098d929190611101565b60408051601f198184030181529190526020810180516001600160e01b03166001600160e01b031990931692909217909152610b89565b336109cd610611565b6001600160a01b0316146105925760405162461bcd60e51b815260206004820181905260248201527f4f776e61626c653a2063616c6c6572206973206e6f7420746865206f776e657260448201526064016100c5565b80471015610a735760405162461bcd60e51b815260206004820152601d60248201527f416464726573733a20696e73756666696369656e742062616c616e636500000060448201526064016100c5565b6000826001600160a01b03168260405160006040518083038185875af1925050503d8060008114610ac0576040519150601f19603f3d011682016040523d82523d6000602084013e610ac5565b606091505b50509050806108f35760405162461bcd60e51b815260206004820152603a60248201527f416464726573733a20756e61626c6520746f2073656e642076616c75652c20726044820152791958da5c1a595b9d081b585e481a185d99481c995d995c9d195960321b60648201526084016100c5565b600080546001600160a01b038381166001600160a01b0319831681178455604051919092169283917f8be0079c531659141344cd1fd0a4f28419497f9722a3daafe3b4186f6b6457e09190a35050565b6000610bde826040518060400160405280602081526020017f5361666545524332303a206c6f772d6c6576656c2063616c6c206661696c6564815250856001600160a01b0316610c5e9092919063ffffffff16565b9050805160001480610bff575080806020019051810190610bff919061114d565b6108f35760405162461bcd60e51b815260206004820152602a60248201527f5361666545524332303a204552433230206f7065726174696f6e20646964206e6044820152691bdd081cdd58d8d9595960b21b60648201526084016100c5565b6060610c6d8484600085610c75565b949350505050565b606082471015610cd65760405162461bcd60e51b815260206004820152602660248201527f416464726573733a20696e73756666696369656e742062616c616e636520666f6044820152651c8818d85b1b60d21b60648201526084016100c5565b600080866001600160a01b03168587604051610cf2919061119f565b60006040518083038185875af1925050503d8060008114610d2f576040519150601f19603f3d011682016040523d82523d6000602084013e610d34565b606091505b5091509150610d4587838387610d50565b979650505050505050565b60608315610dbc578251610db5576001600160a01b0385163b610db55760405162461bcd60e51b815260206004820152601d60248201527f416464726573733a2063616c6c20746f206e6f6e2d636f6e747261637400000060448201526064016100c5565b5081610c6d565b610c6d8383815115610dd15781518083602001fd5b8060405162461bcd60e51b81526004016100c591906111bb565b6001600160a01b0391909116815260200190565b600060208284031215610e1157600080fd5b5035919050565b600060208284031215610e2a57600080fd5b81356001600160a01b0381168114610e4157600080fd5b9392505050565b600060208284031215610e5a57600080fd5b5051919050565b634e487b7160e01b600052604160045260246000fd5b60405160c081016001600160401b0381118282101715610e9957610e99610e61565b60405290565b604051606081016001600160401b0381118282101715610e9957610e99610e61565b604051601f8201601f191681016001600160401b0381118282101715610ee957610ee9610e61565b604052919050565b805161ffff81168114610f0357600080fd5b919050565b805165ffffffffffff81168114610f0357600080fd5b805160038110610f0357600080fd5b600060c08284031215610f3f57600080fd5b610f47610e77565b82519091506001600160981b0381168114610f6157600080fd5b815260208201516001600160801b0381168114610f7d57600080fd5b6020820152610f8e60408301610ef1565b6040820152610f9f60608301610f08565b6060820152610fb060808301610f08565b6080820152610fc160a08301610f1e565b60a082015292915050565b60006020808385031215610fdf57600080fd5b82516001600160401b0380821115610ff657600080fd5b818501915085601f83011261100a57600080fd5b81518181111561101c5761101c610e61565b61102a848260051b01610ec1565b818152848101925060089190911b83018401908782111561104a57600080fd5b928401925b81841015610d455761010084890312156110695760008081fd5b611071610e9f565b845181528585015186820152604061108b8a828801610f2d565b90820152835261010093909301929184019161104f565b634e487b7160e01b600052603260045260246000fd5b634e487b7160e01b600052601160045260246000fd5b60006000198214156110e2576110e26110b8565b5060010190565b600082198211156110fc576110fc6110b8565b500190565b6001600160a01b03929092168252602082015260400190565b600060c0828403121561112c57600080fd5b610e418383610f2d565b600082821015611148576111486110b8565b500390565b60006020828403121561115f57600080fd5b81518015158114610e4157600080fd5b60005b8381101561118a578181015183820152602001611172565b83811115611199576000848401525b50505050565b600082516111b181846020870161116f565b9190910192915050565b60208152600082518060208401526111da81604085016020870161116f565b601f01601f1916919091016040019291505056fe000000000000000000000000f19308f923582a6f7c465e5ce7a9dc1bec6665b1a2646970667358221220fb182bdef640a9f3c531eb631299f62823d5075eef3b0c40b307b380360b606264736f6c634300080a0033",
    "linkReferences": {},
    "deployedLinkReferences": {}
}